:020000040800F2
:10000000180900246D030008AB34000835310008DE
:10001000A9340008C70500083940000800000000A6
:10002000000000000000000000000000F1360008A1
:10003000C905000800000000AD340008F3360008D0
:100040008703000887030008870300088703000868
:100050008703000887030008870300088703000858
:100060008703000887030008870300088703000848
:100070008703000887030008870300088703000838
:10008000870300088703000887030008D1050008DC
:100090008703000887030008870300088703000818
:1000A00079380008853800088703000887030008AE
:1000B00091380008870300088703000887030008B9
:1000C00087030008870300088703000887030008E8
:1000D00087030008870300088703000887030008D8
:1000E000870300088703000800000000870300085A
:1000F00087030008870300088703000887030008B8
:1001000087030008870300088703000887030008A7
:100110008703000887030008870300088703000897
:100120008703000887030008870300088703000887
:100130008703000887030008870300088703000877
:1001400000000000000000000000000000000000AF
:100150008703000887030008870300088703000857
:100160008703000887030008870300088703000847
:100170008703000887030008870300088703000837
:100180008703000887030008870300088703000827
:100190008703000887030008870300088703000817
:1001A0008703000887030008870300080000000099
:1001B00087030008870300088703000887030008F7
:1001C000870300088703000800000000000000000B
:1001D000000000000000000087030008000000008D
:1001E000000000000000000000000000000000000F
:1001F00000000000000000008703000887030008DB
:100200008703000887030008000000008703000838
:100210008703000887030008870300088703000896
:1002200087030008000000008703000800000000AA
:100230008703000887030008000000008703000808
:100240008703000887030008870300088703000866
:100250008703000887030008870300088703000856
:100260008703000887030008870300088703000846
:1002700087030008870300088703000800000000C8
:100280008703000887030008870300088703000826
:1002900000000000870300088703000887030008A8
:1002A0008703000887030008870300088703000806
:1002B0002D40000887030008870300088703000813
:1002C00087030008870300088703000800F002F88E
:1002D00000F03CF80AA090E8000C82448344AAF1A4
:1002E0000107DA4501D100F031F8AFF2090EBAE8A2
:1002F0000F0013F0010F18BFFB1A43F0010318475A
:100300006C3E00008C3E0000103A24BF78C878C1D3
:10031000FAD8520724BF30C830C144BF04680C600B
:10032000704700000023002400250026103A28BF53
:1003300078C1FBD8520728BF30C148BF0B60704757
:100340001FB503F0CBFE1FBD10B510BD00F001F9C5
:100350001146FFF7F5FF03F081FE00F01FF903B42B
:10036000FFF7F2FF03BC00F027F9000009488047BF
:1003700009480047FEE7FEE7FEE7FEE7FEE7FEE787
:10038000FEE7FEE7FEE7FEE704480549054A064B9F
:1003900070470000B1370008CD02000818030024A0
:1003A00018090024180500241805002453EA020C3B
:1003B00000F069802DE9F04B4FF00006002B1FBFC5
:1003C000B3FA83F503FA05F424FA05F65E4012BF8A
:1003D0001643B2FA82F502FA05F4C5F120051EBFF4
:1003E00022FA05FC44EA0C04203556EA044C4FEA94
:1003F000144418BF641C4FF000084FF000099042ED
:1004000071EB030C39D3002919BFB1FA81F701FA56
:1004100007F6B0FA80F700FA07F6C7F120071EBF0B
:1004200020FA07FC46EA0C062037B6FBF4FCA7EBE3
:100430000507103F07F01F0BCBF120060CFA0BFB52
:100440002CFA06F644BFB3460026202FA4BF5E4612
:100450004FF0000B5BEA060C08BF4FF0010B19EBE5
:100460000B09ABFB027C48EB0608C01B06FB02CC69
:100470000BFB03CC71EB0C01C1E70B460246414676
:100480004846BDE8F08B13B54FF000004FF0000177
:10049000AFF30080BDE81C40704710B5203AC0F0B3
:1004A0000B80B1E81850203AA0E81850B1E8185075
:1004B000A0E81850BFF4F5AF5FEA027C24BFB1E8B2
:1004C0001850A0E8185044BF18C918C0BDE8104023
:1004D0005FEA827C24BF51F8043B40F8043B08BF2C
:1004E0007047D20728BF31F8023B48BF11F8012BF3
:1004F00028BF20F8023B48BF00F8012B70474FF09F
:10050000000200B5134694469646203922BFA0E863
:100510000C50A0E80C50B1F12001BFF4F7AF09076F
:1005200028BFA0E80C5048BF0CC05DF804EB890060
:1005300028BF40F8042B08BF704748BF20F8022BA3
:1005400011F0804F18BF00F8012B704770477047BB
:100550007047754600F02CF8AE46050069465346D4
:1005600020F00700854618B020B5FFF70DFFBDE865
:1005700020404FF000064FF000074FF000084FF00A
:10058000000B21F00701AC46ACE8C009ACE8C0099B
:10059000ACE8C009ACE8C0098D46704710B5044608
:1005A000AFF300802046BDE81040FFF7D8BE000042
:1005B00000487047B802002401491820ABBEFEE78E
:1005C000260002007047FEE7704772B6FEE70000A3
:1005D000014800F02DBA00001C000024F0B50368AB
:1005E0004FF6FC716D4C426BD3F884508D4345EA55
:1005F0008205C3F88450036853F8845F068F25F49E
:100600007F0545EA06451D60836B654D9F180268AE
:10061000D2F888308B4343EA8703C2F888300268F7
:1006200052F8883F868F23F4FE0343EA06431360A3
:10063000066856F8A03FC26B8B4307EB420243EAC1
:1006400082033360076857F8A03FB0F8406023F496
:10065000FE0343EA06433B60D0E9103603FB062263
:100660000368D3F8B0608E4346EA8206C3F8B060F0
:100670000368B0F84860D3F8B07027F4FE0747EA83
:100680000646C3F8B060D0E91267036806FB07228C
:10069000D3F8AC608E4346EA8206C3F8AC60D0E97A
:1006A0001467036806FB0722D3F8F0608E4346EA1E
:1006B0008206C3F8F0600368B0F85860D3F8F070B1
:1006C00027F47C1747EA0646C3F8F0600368876D95
:1006D00053F8C06F02EB47028E4346EA820119606D
:1006E0000168B0F85C20D1F8C03023F47C1343EAF1
:1006F0000242C1F8C020016890F86020D1F8C030F3
:1007000023F07C5343EA0262C1F8C020416B04EB42
:100710008101C166826B01EB82020267C36B02EB4F
:10072000C3024267D0E91034634302EB830282675D
:10073000D0E91234634302EB8302C267D0E9143478
:10074000634302EB8302C0F88020836D02EBC30396
:10075000C0F88430C46D826E544303EB8403C0F848
:100760008830046E544303EB8402C0F89020AA4200
:100770000AD9D0F89C20032142F02002C0F89C2026
:1007800080F898100120F0BD002200E004C1D0F8EC
:1007900090308B42FAD80020F0BD000000AC004041
:1007A000FCD300402DE9F05F28B190F83510022904
:1007B00004D0802141650120BDE8F09F904C904B12
:1007C0000168183C18338E4ADFF83C92A1428D4CE8
:1007D000DFF838E28E4FDFF83CB2DFF83CA28F4DF5
:1007E0008F4E31D091422FD099422DD0A1422BD0A3
:1007F000494529D0714527D0B94225D0DFF810C22C
:100800000CF1180C61451FD0DFF808C2ACF1600C88
:10081000614519D0DFF8FCC1ACF1480C614513D03B
:10082000DFF8F0C1ACF1300C61450DD0DFF8E4C168
:10083000ACF1180C614507D0594505D0514503D09E
:10084000A94201D0B1422CD1DFF8B4C14FF0040865
:1008500080F83580ACF1180C61451DD091421BD059
:10086000994219D0A14217D0494515D0714513D0EE
:10087000B94211D06648183081420DD065486038C1
:10088000814209D063484838814205D061483038F8
:10089000814201D05F481838086820F001000860E4
:1008A000ABE0D1F800C02CF00E08DFF854C1C1F85D
:1008B0000080ACF1180C0168614527D0914225D029
:1008C000994223D0A14221D049451FD071451DD066
:1008D000B9421BD0DFF838C10CF1180C614515D0B6
:1008E000DFF830C1ACF1600C61450FD0DFF824C1F6
:1008F000ACF1480C614509D0DFF818C1ACF1300CFF
:10090000614503D0DFF80CC1ACF1180CD1F800C080
:100910002CF0010CC1F800C0DFF8E4804FF0010CAE
:100920000168A8F11808414546D0914244D0994247
:1009300042D0A14240D049453ED071453CD0B94259
:100940003AD0334A1832914236D0324A603A914214
:1009500032D0304A483A91422ED02E4A303A914213
:100960002AD02C4A183A914226D0594524D05145D4
:1009700022D0A94220D0B1421ED02A4A91421BD097
:10098000284A1432914217D0264A2832914213D075
:10099000244A3C3291420FD0224A503291420BD02D
:1009A000204A6432914207D01E4A7832914203D0E5
:1009B0001C4A8C32914218D1016E0A6822F480726E
:1009C0000A6090F85C20816D02F01F020CFA02F2BE
:1009D0004A60D0E919124A60C16E31B10A6822F446
:1009E00080720A60D0E91C124A600022016D80F812
:1009F000342080F835C001B188470020DCE60000D3
:100A00002800024058000240700002408800024066
:100A1000A00002407004024088040240A00402408A
:100A2000B804024008540258704770477047704736
:100A30002DE9FC5FDFF804B3044600680BF1040203
:100A40008246DBF80070D2F80080026D416D036DC4
:100A5000466DD0F85090456DD0F850C009F0F000C8
:100A600005EA0009DAF85450DAF8500000F0607E28
:100A7000B80700EA88700090DAF85470DAF8548009
:100A800002F4704003F00F02014001910CF0715329
:100A90005FEAC85106EA020605EA030507EA0E07FF
:100AA0000DD5DAF85000C00509D500214FF4807348
:100AB000CAF85030CBF800102046FFF7B8FF206886
:100AC000416D490511D5016D49050ED5D0F8DC20E1
:100AD000D0F8E41000234FF48068C0F85080114033
:100AE000CBF80030204600F096FADFF854820098E8
:100AF00050B12268830F00EA08001065CBF800307F
:100B000020460099FFF790FF019850B12268830FAB
:100B100000EA08001065CBF800302046019900F08B
:100B20007CFA56B12268B30F06EA08001065CBF8CC
:100B300000303146204600F066FAB9F1000F0BD0C4
:100B400022684FEA997309EA08001065CBF8003073
:100B50004946204600F058FA2068416D09050BD53A
:100B6000016D090508D500214FF400630365CBF83A
:100B70000010204600F052FA2068416D890511D519
:100B8000016D89050ED5D0F8D820D0F8E0100023EB
:100B90004FF4007CC0F850C01140CBF80030204624
:100BA00000F03AFA2068416D09030BD5016D090385
:100BB00008D500214FF400230365CBF80010204630
:100BC00000F020FA2068416DC9030BD5016DC903FF
:100BD00008D500214FF480330365CBF80010204680
:100BE00000F018FA2068416D49030BD5016D4903E7
:100BF00008D500214FF480230365CBF80010204670
:100C000000F007FA2068416D89030ED5016D890354
:100C10000BD500214FF400330365CBF80010D4F856
:100C20009C0040F08000C4F89C0057B12268BB0FC4
:100C300007EA08001065CBF8003039462046FFF778
:100C4000F5FE5DB12268AB0F05EA08001065CBF830
:100C50000030D4F89C002843C4F89C00394920682F
:100C6000884262D160688146806880075DD0D9F88B
:100C70002060D9F82410D9F82080D9F82400D9F8B8
:100C80002030D9F82470D9F82020D9F82450D9F888
:100C900020C002F4FC4206F00F0AD9F82460154087
:100CA00008F0300803F4C0730CF4F02C11EA0A01C8
:100CB00000EA080807EA030706EA0C0604D0C9F8A8
:100CC0002010204600F0A2F9B8F1000005D06168BC
:100CD00008624146204600F09BF96068416A490677
:100CE0000CD5016A490609D5C16BC26B402303626A
:100CF000090C204602F03F0200F089F92FB160682C
:100D000007623946204600F080F935B16068056217
:100D1000D4F89C002843C4F89C0036B16068066291
:100D2000D4F89C003043C4F89C00D4F89C00002800
:100D300002D02046FFF779FEBDE8FC9F10A80040D6
:100D4000FFFFCF3F00A000402DE9F04194B08D4956
:100D50004C2204466846FFF7A0FB64B18A4D206828
:100D6000A84202D100F58070606094F898004FF0BE
:100D7000000820B108E0012014B0BDE8F081204651
:100D800084F8998000F002F92068816921F010014F
:100D9000816100F05FFA0327064604E000F05AFA8A
:100DA000801B0A2811D8206880690007F6D42068C3
:100DB000816941F00101816100F04CFA06460DE0C5
:100DC00000F048FA801B0A2808D9D4F89C0040F0AB
:100DD0000100C4F89C0084F89870CCE72068806912
:100DE000C007EDD02068816941F002018161207C5B
:100DF00001282068816937D041F040018161607C21
:100E000001282068816932D021F480418161A07C71
:100E10000128206881692DD041F4805181612068CA
:100E2000A268816921F44071114381612068816960
:100E300021F0A40181612068016921F010010161A4
:100E4000E068012819D010B302281BD020688169FE
:100E500041F0800181612068016941F01001016168
:100E6000E06803280ED012E021F04001C6E741F40B
:100E70008041CBE721F48051D0E72068816941F0BF
:100E8000040103E02068816941F020018161207E36
:100E90006FF0FF02D4E90773A68A1102400602EB45
:100EA0000727A0F10070384327685B1E184301EB49
:100EB00006463043F861A068B0F5407F11D104F1D7
:100EC0002800A68C6FF00F0C89C801EB0641401E6C
:100ED00002EB0322104322680CEB0713184308436C
:100EE000D060206E30B12068626ED0F8C01011431F
:100EF000C0F8C010D4E917126846D14209D0216861
:100F0000A36E51F8C82F50F8233022F007021A437D
:100F10000A60216C49B12168626C51F8BC3F50F8FD
:100F2000226023F0070232430A60A16C51B12168AC
:100F3000E36C51F8BC2F50F8233022F0700242EAE3
:100F400003120A60216D51B12168626D51F8BC3FF6
:100F500050F8220023F4E06242EA00200860206892
:100F6000A84204D16068816821F003018160C4F85F
:100F700094800121C4F89C8084F898102046FFF7E3
:100F80002DFBF9E6F840000800A0004010B586B03F
:100F9000044614216846FFF7B2FA174920688842D0
:100FA00027D11648016841F480710160006800F49F
:100FB0008070059011480C38016841F0080101600B
:100FC00000680923032100F008000590002000912B
:100FD00002226946CDE90120CDE90303084800F06B
:100FE0001FF800221320114600F0ACF9132000F086
:100FF0009BF906B010BD000000A00040EC44025870
:10100000000C025870477047704770477047704730
:1010100070477047704770477047704770470000CF
:101020002DE9FC4F01257A4C00234FF0030A4FF0C5
:10103000B04E4FF00F0BE4E005FA03F6324078D0E3
:101040004F68012F05D0022F03D0112F01D0122F8E
:101050001AD187684FEA4308D1F80CC00AFA08F998
:1010600027EA09070CFA08FC4CEA070CC0F808C08C
:10107000476891F804C0B743CCF3001C0CFA03FC9A
:101080004CEA070CC0F804C0C6684FEA4308D1F820
:1010900008C0C1460AFA08F7BE4301970CFA09FCDA
:1010A0004CEA060CC0F80CC04E68022E01D0122E7D
:1010B00012D1DE084FEA437C00EB860600960F69EA
:1010C000366A4FEADC6C0BFA0CF807FA0CF726EAE2
:1010D00008063743009E37620E79D0F800C0019FA2
:1010E00006F0030606FA09F62CEA070C46EA0C0697
:1010F00006604E68F6001CD5464E376847F002077A
:10110000376036689F0706F00206009623F0030654
:1011100006F1B046B1463F0FD6F80864DFF8F88014
:101120000BFA07FC404526EA0C0603D14FF0000CF1
:101130003AE065E0DFF8E4C0604502D14FF0010C11
:1011400032E0DFF8DCC0604502D14FF0020C2BE04A
:10115000DFF8D0C0604502D14FF0030C24E0DFF887
:10116000C8C0604502D14FF0040C1DE0DFF8BCC0E0
:10117000604502D14FF0050C16E0DFF8B4C06045C1
:1011800002D14FF0060C0FE0DFF8A8C0604502D195
:101190004FF0070C08E0DFF8A0C0604502D14FF027
:1011A000090C01E04FF00A0C0CFA07FC4CEA060CA3
:1011B000C9F808C426684F6826EA0206FF0300D56E
:1011C0001643266066684F6826EA0206BF0300D50C
:1011D00016436660D1F804C07746DEF800605FEA27
:1011E000CC2C26EA020600D516433E60D1F804C096
:1011F0007E685FEA8C2C26EA020600D516437E60E4
:101200005B1C0A6832FA03F67FF416AFBDE8FC8F68
:1012100080000058F44402580000025800040258AC
:1012200000080258000C025800100258001402581E
:1012300000180258001C025800240258426931EA82
:10124000020200D10904816170470AB181617047CF
:101250000904FBE70148806870470000080000248B
:1012600002488168027811448160704708000024B8
:10127000032010B500F086F800F0B0FF0F4A1049C7
:1012800014681368C4F3032203F00F038A5CC95C7B
:1012900002F01F0201F01F01D0400A4A20FA01F1BA
:1012A000116009490860002000F010F808B1012021
:1012B00010BD00F02BF8002010BD000018440258AB
:1012C0005C410008180000241400002470B50D4D86
:1012D00004462878A0B14FF47A71B1FBF0F00A49C6
:1012E0000968B1FBF0F001F06CFA48B9102C07D294
:1012F00000222146501E00F025F800206C6070BDD1
:10130000012070BD0800002414000024054808B521
:10131000016841F002010160006800F002000090E5
:1013200008BD0000F4440258002809DB410900F020
:101330001F028900012001F1E0219040C1F8000165
:10134000704700000E4BF0B41B680D46C3F3022338
:10135000C3F10706042E00D90426191D072901D25E
:10136000002300E0DB1E012404FA06F19C40491E24
:101370002940641E994014402143F0BC02F05DBE38
:101380000CED00E0064900F0070210B54FF6FF042F
:101390000868044B204040EA02201843086010BD52
:1013A0000CED00E00000FA05134970B50A68D2435D
:1013B000520705D5096801F00701814213D118E0F1
:1013C0000A6822F0070202430A60FFF743FF0A4D52
:1013D0004FF47A760446083D07E000BFFFF73AFF76
:1013E000001BB04201D9012070BD2868C0438004B1
:1013F000F4D4002070BD00000C48025810B500F075
:10140000A7FE05490968054AC1F30211515C01F0C4
:101410001F01C84010BD0000204402585C41000874
:10142000494930B5484C0B1D0A68143409681D68D9
:10143000246802F00303C5F30012C1F30531C4F3BD
:10144000CC04002914FB02F200EE102AF8EE400A48
:1014500075D03F4A9FED3D1AB7EE000A6BB1DFED44
:101460003D1A012B01D0022B64D002EE101A116834
:10147000F8EE422A81EEA22A21E0334C283C236870
:101480009B0612D5344B246801EE901A1168C4F300
:10149000C104F8EE612AE34001EE903AC1F308017D
:1014A000F8EE611A81EEA22A0BE001EE901ADFED50
:1014B0002B2A00BFF8EE611A116882EEA12AC1F34F
:1014C000080101EE901A1168F8EE611A40EE811AD7
:1014D00071EE800A62EE200AC1F3462101EE101A75
:1014E000B8EE411A31EE001AC0EE811ABCEEE11AD4
:1014F00080ED001A1168C1F3064101EE101AB8EE32
:10150000411A31EE001AC0EE811ABCEEE11A80EDEC
:10151000011A1168C1F3066101EE101AB8EE411A02
:1015200031EE000A80EE801ABCEEC10A80ED020A9C
:1015300030BD04E001EE901ADFED092ABAE7002180
:10154000016041608160F3E72844025800000039DF
:10155000384402580024744A0090D0030024744C8C
:1015600020BCBE4B494930B5484C0B1D0A681C34A1
:1015700009681D68246802F00303C5F30022C1F363
:101580000551C4F3CC04002914FB02F200EE102A2A
:10159000F8EE400A75D03F4A9FED3D1AB7EE000ABB
:1015A0006BB1DFED3D1A012B01D0022B64D002EEAE
:1015B000101A1168F8EE422A81EEA22A21E0334C7B
:1015C000283C23689B0612D5344B246801EE901A00
:1015D0001168C4F3C104F8EE612AE34001EE903AC9
:1015E000C1F30801F8EE611A81EEA22A0BE001EEC8
:1015F000901ADFED2B2A00BFF8EE611A116882EE17
:10160000A12AC1F3080101EE901A1168F8EE611ADF
:1016100040EE811A71EE800A62EE200AC1F3462183
:1016200001EE101AB8EE411A31EE001AC0EE811A1E
:10163000BCEEE11A80ED001A1168C1F3064101EE1B
:10164000101AB8EE411A31EE001AC0EE811ABCEE43
:10165000E11A80ED011A1168C1F3066101EE101A5A
:10166000B8EE411A31EE000A80EE801ABCEEC10AD3
:1016700080ED020A30BD04E001EE901ADFED092A88
:10168000BAE70021016041608160F3E72844025815
:1016900000000039404402580024744A0090D003EE
:1016A0000024744C20BCBE4B2DE9FC5F0446FC4F6B
:1016B00050F8241B0025DFF8EC932E46009008011B
:1016C0001DD5206E50B1B0F5801F0CD0B0F5001FB5
:1016D0000ED0B0F5401F1DD001250FE0386840F452
:1016E0000030386016E00221201D01F0E1FE03E029
:1016F0000098022101F06CFF05000BD02E462088D7
:10170000C00523D5606D05281ED2DFE800F00C115E
:10171000161B1B00226ED9F8001021F44011114352
:10172000C9F80010EBE7386840F40030386009E091
:101730000021201D01F0BCFE03E00098002101F013
:1017400047FF0546BDB100E001252E462088DFF8A1
:101750005483400508F108082FD5D4F8A000B0F54F
:10176000C00F28D010DCB8B1B0F5001F19D0B0F50B
:10177000800F0FD11AE0626DD9F8001021F0070137
:101780001143C9F80010E1E7B0F5000F13D0B0F530
:10179000200F10D001250FE0386840F40030386089
:1017A00009E00021201D01F083FE03E000980021E4
:1017B00001F00EFF05468DB12E462088000530D57C
:1017C000D4F8A400B0F1407F29D011DCC0B1B0F151
:1017D000807F1AD0B0F1007F10D11BE0D4F8A02098
:1017E000D8F8001021F460011143C8F80010E4E7B4
:1017F000B0F1806F13D0B0F1A06F10D001250FE0D1
:10180000386840F40030386009E00021201D01F004
:101810004FFE03E00098002101F0DAFE05468DB18D
:101820002E462068DFF87CB28001ABF1040B1FD597
:10183000A06CD8B110280FD0202812D0302815D095
:10184000012514E0D4F8A420D8F8001021F0E061BC
:101850001143C8F80010E4E7386840F400303860FD
:1018600004E00221201D01F023FE05466DB12E4645
:101870002088C0042BD5A06DB0F5005F20D00DDC12
:10188000A0B1B0F5805F0FD115E0A26CDBF80010BD
:1018900021F030011143CBF80010E9E7B0F5405FCB
:1018A00013D0B0F5804F10D001250FE0386840F418
:1018B0000030386009E00021201D01F0F9FD03E04F
:1018C0000098002101F084FE054685B12E4620884F
:1018D000800429D5E06DB0F5403F23D010DC08B37B
:1018E000B0F5803F14D0B0F5003F0FD115E0A26DE8
:1018F000D9F8001021F4E0411143C9F80010E6E7DF
:10190000B0F5802F0ED0B0F5A02F0BD001250AE046
:101910000121201D01F0CCFD03E00098012101F020
:1019200057FE05468DB12E46208840042AD5D4F8AE
:10193000A800B0F1405F23D010DC08B3B0F1805FA5
:1019400014D0B0F1005F0FD115E0E26DD9F80010AE
:1019500021F4E0211143C9F80010E5E7B0F1804F10
:101960000ED0B0F1A04F0BD001250AE00121201DBF
:1019700001F09EFD03E00098012101F029FE0546DB
:101980006DB12E46208800041FD5A06ED8B1B0F1ED
:10199000805F0ED0B0F1005F10D0012514E0D4F8C4
:1019A000A820D8F8001021F0E0411143C8F8001039
:1019B000E8E7386840F40030386004E00121201D79
:1019C00001F076FD05466DB12E462068C0011ED59A
:1019D000606CD0B101280ED0022811D0032814D099
:1019E000012513E0A26ED9F8001021F040511143F7
:1019F000C9F80010E9E7386840F40030386004E0C6
:101A00000221201D01F054FD054665B12E462068D7
:101A1000400257D52448016841F480710160FFF706
:101A200019FC82460EE0626CDBF8001021F0030125
:101A30001143CBF80010EAE7FFF70CFCA0EB0A001B
:101A400064283DD818480068C005F5D575BBDFF897
:101A500054A0B4F8AC100AF1200ADAF8000001F43E
:101A6000407100F44070884211D0DAF80010DAF8C2
:101A7000002021F4407142F48032CAF80020DAF8E4
:101A8000002022F48032CAF80020CAF80010D4F8EE
:101A9000AC00B0F5807F28D1FFF7DCFB019020E09F
:101AA0002C440258504402580048025809E000BF34
:101AB000FFF7D0FB0199411A41F28830814210D9D9
:101AC00003252E462078DFF808A4C0073DD0606FBC
:101AD000182838D026DC80B3082829D0102825D132
:101AE0002CE0DAF800008007E2D5D4F8AC10C1F39E
:101AF00001200328F7480DD0016821F47C510160D2
:101B0000B4F8AC20DAF80010C2F30B021143CAF8A3
:101B10000010D7E7F04A036802EA111223F47C515F
:101B20001143ECE720280ED028280CD001250BE02B
:101B30000121201D01F0BCFC04E004E0009801211B
:101B400001F046FD05465DB12E46207880071ED582
:101B5000206F062819D2DFE800F0160C11161616B1
:101B6000626FDAF8001021F038011143CAF8001052
:101B7000EBE70121201D01F09BFC03E0009801210F
:101B800001F026FD054675B100E001252E462078BE
:101B900040071FD5D4F88C00062819D2DFE800F0E2
:101BA000160C11161616226FDAF8001021F0070134
:101BB0001143CAF80010EAE70121201D01F078FC6A
:101BC00003E00098012101F003FD05469DB100E00E
:101BD00001252E46207880062BD5D4F88800B0F158
:101BE000405F24D011DC10B3B0F1805F15D0B0F1AC
:101BF000005F10D116E0D4F88C20D8F8001021F046
:101C000007011143C8F80010E4E7B0F1804F0ED08F
:101C1000B0F1A04F0BD001250AE00021201D01F0FA
:101C200047FC03E00098022101F0D2FC05468DB18B
:101C30002E46207840062BD5D4F89400B0F5406F9E
:101C400024D011DC10B3B0F5806F15D0B0F5006F63
:101C500010D116E0D4F88820DAF8001021F0E04125
:101C60001143CAF80010E4E7B0F5805F0ED0B0F57C
:101C7000A05F0BD001250AE00021201D01F018FC17
:101C800003E00098022101F0A3FC05468DB12E4629
:101C9000207800062BD5D4F89800B0F5C04F24D09A
:101CA00011DC10B3B0F5005F15D0B0F5804F10D146
:101CB00016E0D4F89420D8F8001021F4E051114334
:101CC000C8F80010E4E7B0F5004F0ED0B0F5204F93
:101CD0000BD001250AE00021201D01F0E9FB03E003
:101CE0000098022101F074FC054645B12E4620788B
:101CF00000071CD5E06FB0F5805F0AD00FE0D4F884
:101D00009820D8F8001021F460411143C8F8001061
:101D1000EDE70098022101F05BFC00B10126E26FC3
:101D2000DAF8001021F440511143CAF8001020786D
:101D3000C00613D5D4F89000B0F5807F05D1009887
:101D4000022101F045FC00B10126D4F89020D8F81A
:101D5000001021F440711143C8F8001020680003FE
:101D600016D5D4F89C0038B1B0F5803F09D0B0F555
:101D7000003F0BD001250AE00021201D01F098FB57
:101D800003E00098022101F023FC054685B12E46B0
:101D90002068400322D5D4F88000B0F5801F11D010
:101DA000B0F5001F13D0B0F5401F15D0012514E089
:101DB000D4F89C20D8F8001021F440311143C8F821
:101DC0000010E5E7386840F40030386004E000981F
:101DD000012101F0FDFB054655B12E462068C003E8
:101DE0001CD5E06C70B1B0F5803F10D0012514E037
:101DF000D4F88020DAF8001021F440111143CAF819
:101E00000010EBE7386840F40030386004E002214D
:101E1000201D01F04DFB0546CDB12E462068800007
:101E200005D50098022101F0D3FB00B101262068FE
:101E300080031BD5A06FB8B1B0F5807F10D0B0F58E
:101E4000007F11D0B0F5407F0ED001250DE0E26C8F
:101E5000DBF8001021F480311143CBF80010DDE7EE
:101E6000386840F400303860C5B32E462068C002A0
:101E700007D5E26ED9F8001021F000411143C9F8EE
:101E800000102068800207D5626ED9F8001021F09A
:101E900080711143C9F800102068400009D50D4831
:101EA000016821F4004101600168D4F8B0201143B9
:101EB00001602068002807DA226DDBF8001021F0AD
:101EC00040511143CBF8001096B10120BDE8FC9FB2
:101ED0005444025810440258CFFFFF00FFE7A26F9E
:101EE000DAF8001021F440711143CAF80010BDE780
:101EF0000020EBE72DE9F05F04000F467ED0DFF80D
:101F00003882D8F8000000F00F00B8420CD2D8F8A0
:101F1000001021F00F013943C8F80010D8F8000074
:101F200000F00F00B84269D12078844D40070AD5EF
:101F30002069296801F07001884204D9296821F0DC
:101F400070010143296020787C4E361D00070AD5B8
:101F50006069316801F07001884204D9316821F06C
:101F60007001014331602078C0060AD5A06931684C
:101F700001F4E061884204D9316821F4E061014351
:101F800031602078DFF8B4B180060BF1080B0CD576
:101F9000E1695846DBF8002002F07002914204D952
:101FA000026822F070020A430260207880070AD596
:101FB000E068296801F00F01884204D9296821F0FE
:101FC0000F01014329602078C0073ED05B49A26819
:101FD0002868183920F4706010432860606802286F
:101FE00018D0032819D00968012819D049070029F9
:101FF0004ADADFF848A1AAF1080A00E044E0DAF87A
:10200000002022F007020243CAF80020FFF722F95D
:10201000814612E009688903E9E709688901E6E772
:10202000C905E4E7FFF716F9A0EB090141F2883092
:10203000814202D90320BDE8F09F6168DAF8000010
:1020400000F03800B0EBC10FECD1207880070AD542
:10205000E068296801F00F01884204D2296821F064
:102060000F0101432960D8F80010404601F00F012C
:10207000B9420BD9016821F00F01394301600068B2
:1020800000F00F00B84201D00120D4E720784007CB
:102090000AD52069296801F07001884204D22968B4
:1020A00021F0700101432960207800070AD560699A
:1020B000316801F07001884204D2316821F070016A
:1020C000014331602078C0060AD5A069316801F467
:1020D000E061884204D2316821F4E061014331605B
:1020E000207880060CD5E1695846DBF8002002F024
:1020F0007002914204D2026822F070020A43026028
:1021000000F06CF80E492A682B68C2F3032203F032
:102110000F038A5CC95C02F01F0201F01F01D0406E
:10212000084A20FA01F11160074908600748006871
:10213000BDE8F05FFFF7CAB800200052184402580B
:102140005C41000818000024140000240C00002446
:1021500030B500F043F80B4A0B490C4B1568146876
:10216000C5F3032204F00F048A5C095D02F01F022C
:1021700001F01F01D040064A20FA01F119601060F9
:10218000084630BD184402585C410008180000247D
:102190001400002400B5FFF7DBFF05490968054A74
:1021A000C1F30211515C01F01F01C84000BD0000E5
:1021B0001C4402585C41000800B5FFF7C9FF0549FF
:1021C0000968054AC1F30221515C01F01F01C840B2
:1021D00000BD00001C4402585C410008454970B530
:1021E00045480968434B103B11F0380208D00111F3
:1021F000082A03D0102A0BD0182A0BD0084670BD2D
:1022000019688906FBD51968C1F3C101C84070BDC2
:102210003A4870BD3749374D18310C1D24350A68CE
:10222000096826682D6802F0030406F00102C1F374
:102230000511C5F3CC0515FB02F200EE102AB8EE2D
:10224000400AE9B32F4ADFED2E0AB7EE001A6CB14F
:10225000DFED2D1A012C01D0022C43D002EE101A12
:102260001068F8EE422A81EEA22A1EE01C68A4063D
:1022700011D51B6801EE901A1168C3F3C103F8EE83
:10228000612AD84001EE900AC1F30800F8EE611A05
:1022900081EEA22A0BE001EE901ADFED1C2A00BFAE
:1022A000F8EE611A106882EEA12AC0F3080001EE70
:1022B000900AF8EE611A40EE201A31EE810A00E031
:1022C00015E022EE000A1068C0F34620401C00EE24
:1022D000900AF8EE600A80EE201ABCEEC10A10EEF9
:1022E000100A70BD01EE901ADFED092AD8E7002030
:1022F00070BD0000104402580090D00340787D016A
:1023000000000039304402580024744A0024744C00
:1023100020BCBE4B2DE9F04704007DD0FF4F207854
:10232000FE4D1837DFF8F483103DC00748D0D8F8C9
:102330000000396800F03800102815D0182803D1A3
:1023400001F0030002280FD06068B0F5803F12D082
:1023500010B1B0F5A02F18D0286820F48030286084
:10236000286820F4802009E02868800328D5606868
:102370000028D2D024E0286840F4803028606068CB
:1023800088B1FEF767FF064609E0286840F4802020
:102390002860F0E7FEF75EFF801B642877D8286886
:1023A0008003F7D50CE0FEF755FF064605E000BFB9
:1023B000FEF750FF801B6428F0D828688003F7D40C
:1023C0002078800744D5D8F80000DFF850933968AA
:1023D00010F03800A9F10C090ED0182801D1880797
:1023E0000AD0E06818B3296821F019010143296077
:1023F000FEF730FF064616E02868400702D5E06881
:1024000000288AD0217CD9F8002022F0FE4242EA3E
:102410000161C9F800101BE0B0E000BFFEF71AFF31
:10242000801B0228BAD828684007F7D5EAE7286851
:1024300020F001002860FEF70DFF064605E000BF12
:10244000FEF708FF801B0228A8D828684007F7D4A9
:102450002078C00646D5D8F80000DFF8C092396869
:1024600000F03800A9F10409082811D0182803D178
:1024700001F0030001280BD0E0690028286822D071
:1024800040F080002860FEF7E5FE064617E0C3E056
:102490002868C00502D5E06980286FD194F8201023
:1024A000D9F8002022F07C5242EA0161C9F80010FC
:1024B00018E000BFFEF7CEFE801B0228B2D82868C5
:1024C000C005F7D5EAE720F080002860FEF7C2FEDD
:1024D000064604E0FEF7BEFE801B0228A2D828684C
:1024E000C005F7D42078000729D58C48616964308D
:1024F00000298146016811D041F001010160FEF719
:10250000A9FE064605E000BFFEF7A4FE801B0228D8
:1025100088D8D9F800008007F6D510E021F0010135
:102520000160FEF797FE064605E000BFFEF792FE4B
:10253000801B022870D8D9F800008007F6D42078D4
:10254000800625D5A0690028286810D040F4805066
:102550002860FEF77FFE064605E000BFFEF77AFE24
:10256000801B022858D828688004F7D510E020F492
:1025700080502860FEF76EFE064606E01DE100BFB3
:10258000FEF768FE801B022846D828688004F7D42E
:10259000207840074FD5DFF88891D9F8001041F432
:1025A0008071C9F80010FEF755FE064605E000BF31
:1025B000FEF750FE801B64282ED8D9F80000C00515
:1025C000F6D5564EA068603601280AD008B1052815
:1025D00013D0306820F001003060306820F0040033
:1025E00002E0306840F001003060A06841F2883AB3
:1025F00098B1FEF72FFE81460AE0306840F00400F3
:102600003060EEE7FEF726FEA0EB0901514503D846
:1026100030688007F6D50EE084E0FEF71BFE8146A9
:1026200006E000BFFEF716FEA0EB0901514579D880
:1026300030688007F6D4606AF0B34146DFF8DC808A
:1026400008F120080968C1F3C20103296BD00228F0
:10265000286820F08070286003D0FEF7FBFD044658
:1026600080E0FEF7F7FD064605E000BFFEF7F2FD4D
:10267000801B022873D828688001F7D4E26A40F2F0
:10268000F331386854F8283F884340EA0210184371
:102690003860217B4FF4FE0C22894FF0FE47208AE0
:1026A0004902267D521E401EA1F5007189B20CEA36
:1026B0000040C2F3080200E081E01143761E0143AE
:1026C000164807EA06621143144A1C30C8F8001085
:1026D0002432016821F00101016011684FF6F8769B
:1026E000236AB14341EAC30111600168A26921F084
:1026F0000C01114301600168E26921F002011143FC
:102700000160016841F480310160016841F40031E9
:102710000160016841F48021016005E01044025825
:10272000004802581BE021E0016841F0010101600E
:10273000286840F080702860FEF78CFD044604E0B5
:10274000FEF788FD001B022809D828688001F7D50C
:1027500035E000BFFEF77EFD001B022802D90320F2
:10276000BDE8F08728688001F4D428E039680128A2
:10277000D8F8000021D0A26A01F0030393421CD1D3
:10278000E26AC1F305118A4217D1216BC0F3080236
:10279000491E8A4211D1616BC0F34622491E914203
:1027A0000BD1A16BC0F30642491E914205D1E16BEA
:1027B000C0F30660491E814201D00120D0E700200D
:1027C000CEE7401EB0F1807F10B501D3012010BDCF
:1027D0004FF0E02460610F21601701F02EFC002013
:1027E000A0610721216110BD70477047704700004C
:1027F000F0B590F83C20012A41D0224E012480F807
:102800003C40022280F83D2002681F4D5368B242CE
:10281000D2F808C001D0AA4203D14F6823F4700354
:102820003B430F6823F070031F4357600268B242B6
:1028300019D0B2F1804F16D0144B9A4213D0144BDA
:102840009A4210D0134B9A420DD0AA420BD0124B91
:102850009A4208D0114B9A4205D0114B9A4202D0AD
:10286000104B9A4204D189682CF08003194391607F
:10287000002180F83D4080F83C100846F0BD022061
:10288000F0BD0000000001400004014000040040D1
:1028900000080040000C00400018004000400140CB
:1028A00000E0004000E4004010B5040003D094F8BC
:1028B0003D0010B107E0012010BD002084F83C006D
:1028C000204600F023F8022084F83D002068211DF6
:1028D00000F0E4FF012084F8480084F83E0084F80A
:1028E0003F0084F8400084F8410084F8420084F8F6
:1028F000430084F8440084F8450084F8460084F8D6
:10290000470084F83D00002010BD000008B50168B4
:102910001E48814217D11E48016841F00101016043
:1029200000680022114600F0010000901820FEF718
:1029300009FD1820FEF7F8FC002219201146FEF7C9
:1029400001FD19201DE01348B1F1804F0BD0124A50
:10295000914207D1016841F002010160006800F076
:102960000200009008BD016841F0010101600068AB
:102970000022114600F0010000901C20FEF7E2FC4E
:102980001C20BDE80840FEF7CFBC0000000001405D
:10299000F0440258E84402580004004090F83D100A
:1029A000012901D0012070470B4A022180F83D1017
:1029B0000168CB6843F00103CB6000688168114077
:1029C000062906D0B1F5803F03D0016841F001012E
:1029D00001600020704700000700010070B5044648
:1029E00090F83C00012814D0394B012584F83C5064
:1029F000022084F83D0022689068184020F47F404F
:102A000090600868702828D010DC10F00F0F03D0F9
:102A10004BE04FF0020070BD4FEA2012072A44D26B
:102A2000DFE802F05151515149323A00B0F1101F24
:102A300049D009DCB0F5805F37D0B0F5005F17D022
:102A4000B0F5801F31D13EE0A0F5801120393AD099
:102A5000102938D0202928D135E04A682068D1E9EA
:102A6000021300F087FF2068816841F0770109E0D8
:102A70004A682068D1E9021300F07CFF2068816871
:102A800041F48041816010E0CA684968206800F024
:102A900085FF2068502106E0CA684968206800F078
:102AA0008EFF2068602100F06FFF002084F83D5009
:102AB00084F83C0070BDCA684968206800F06EFF69
:102AC00020684021EFE7226801461046EBE700004E
:102AD00088FFCEFF704770B5044600680025016985
:102AE000C943890715D4C168C943890711D4EA1EAF
:102AF000026101212177206880698007204602D089
:102B0000FFF7E8FF04E000F0A7F8204600F0A5F882
:102B1000257720680169C943490717D4C168C943AB
:102B2000490713D402216FF0040202612177206863
:102B3000806910F4407F204602D0FFF7CBFF04E00D
:102B400000F08AF8204600F088F8257720680169AF
:102B5000C943090716D4C168C943090712D404211F
:102B60006FF00802026121772068C0698007204663
:102B700002D0FFF7AFFF04E000F06EF8204600F04F
:102B80006CF8257720680169C943C90617D4C16864
:102B9000C943C90613D408216FF0100202612177DE
:102BA0002068C06910F4407F204602D0FFF792FFF2
:102BB00004E000F051F8204600F04FF82577206837
:102BC0000169C943C90708D1C168C943C90704D10C
:102BD000891E0161204600F041F820680169C9435F
:102BE000090609D4C168C943090605D46FF08001FC
:102BF00001612046FFF7F9FD20680169C943C90555
:102C000009D4C168C943090605D46FF48071016114
:102C10002046FFF7E9FD20680169C943490609D448
:102C2000C168C943490605D46FF0400101612046DF
:102C300000F020F820680169C94389060BD4C168F7
:102C4000C943890607D46FF0200101612046BDE821
:102C50007040FFF7CBBD70BD704770470068B0F1A2
:102C6000804F04D102484FF48061FEF7E7BA704705
:102C7000000C0258704730B590F87C10012918D02C
:102C8000012280F87C202421C0F88010002220241A
:102C900050F8601B0B680D6823F0005325F0010508
:102CA0000D60426050F8601C0B60046202771046B1
:102CB00030BD022030BD704770B5044690F87C00EE
:102CC00001281DD0012284F87C202420C4F8800033
:102CD00020680568026822F00102026020688268AC
:102CE00022F060620A438260204600F07BFE226888
:102CF000202100201560C4F8801084F87C0070BD8D
:102D0000022070BD70B5044690F87C0001281DD0EB
:102D1000012284F87C202420C4F880002068056803
:102D2000026822F0010202602068826822F060429C
:102D30000A438260204600F055FE226820210020D0
:102D40001560C4F8801084F87C0070BD022070BD4E
:102D500070477047704700002DE9F0410368044652
:102D6000002540F60F06D86919689A68304209D1E3
:102D700086067DD501F0200602F080573E4377D0CD
:102D8000E16E9EE0614E624F16400F4037436FD0B8
:102D9000C70709D0CF0507D501271F62D4F88830AF
:102DA00043F00103C4F8883083070AD5D30708D05D
:102DB000276802233B62D4F8883043F00403C4F848
:102DC000883043070AD5D30708D0276804233B621D
:102DD000D4F8883043F00203C4F8883003070CD5D8
:102DE00001F02003334308D0266808233362D4F867
:102DF000883043F00803C4F8883003050BD54B0135
:102E000009D526684FF400633362D4F8883043F064
:102E10002003C4F88830D4F88830002B34D08006E2
:102E200009D501F0200002F08051084303D0E16E83
:102E300009B1204688472168D4F888008968490686
:102E400002D410F0280F21D0204600F09BFE20680D
:102E50008168490615D5816821F040018160A06F25
:102E600078B12C490165A06FFDF79CFC002800E0BB
:102E700012E009D0A06F016D00E02046BDE8F041EE
:102E800008472046FFF766FFBDE8F0812046FFF7C0
:102E900061FFC4F88850F7E7C60209D5560207D586
:102EA0004FF4801018622046BDE8F041FFF751BF93
:102EB000060609D501F0800602F40002164303D08D
:102EC000216F0029D9D1DFE742060DD54A060BD57F
:102ED0001A682021204622F040021A60C4F88010AF
:102EE000256700F026F9CFE7020206D54A0004D58F
:102EF0002046BDE8F041FFF72BBFC001C4D5002933
:102F0000C2DA2046BDE8F041FFF7D5BE010000104F
:102F1000200100046F3B000810B5040003D0D4F872
:102F2000800010B107E0012010BD002084F87C0073
:102F3000204600F027F82420C4F8800020680168AB
:102F400021F001010160204600F030FE0128EBD0A5
:102F5000A06A10B1204600F077FD2068416821F496
:102F6000904141602068816821F02A0181602068D9
:102F7000016841F0010101602046BDE8104000F009
:102F8000C7BD00002DE9F04186B004461421684613
:102F9000FDF7B5FA20680026324A0225304903249D
:102FA00090424FF0010828D12D480830026842F4C1
:102FB00080220260006800F480200590086840F0DC
:102FC0000800086008680727694600F008000590B7
:102FD000E8018DE86100244ECDE903473046FEF755
:102FE0001FF8290230468DE82201CDE903476946E2
:102FF000FEF716F806B0BDE8F0811C4A9042F9D100
:1030000017481030026842F080020260006800F049
:1030100080000590086840F0100008600868694664
:10302000134F00F01000059004208DE82101CDE938
:1030300003403846FDF7F4FF0B210820CDE903419A
:103040008DE8610069463846FDF7EAFF00229C20C2
:103050001146FEF777F99C20FEF766F9CAE70000F3
:10306000E044025800480040000C0258001C014097
:10307000001002582DE9F8430446D0F880001F469E
:1030800016460D46202852D1DDB1D6B194F87C0009
:1030900001284CD0012084F87C0021224FF0000848
:1030A000C4F88880C4F880201834FEF7D3F881462D
:1030B00054F8100CA687E687183CB0F5805F03D063
:1030C00004E00120BDE8F883206920B12E460025E8
:1030D00084F87C8010E00026FAE78021204600F08A
:1030E00053FFB8B9C6B116F8010B21688862B4F86D
:1030F0005600401EA4F85600B4F856004B464FF058
:10310000000200970028E8D14FF04001204600F06F
:103110003BFF38B10320D5E735F8020B2168C0F337
:103120000800E3E72020C4F880000020CAE702205E
:10313000C8E77047FEE700001748002170B5154C3E
:1031400001238160062504600724C1600422017404
:1031500041748174C0E90553C561C0E908438362C5
:10316000C362C0E90C318163C163C0E91012C0E9D8
:103170001212C0E914128165C1650166C0E9191215
:10318000FDF7E2FD002803D0BDE87040FDF71DBA51
:1031900070BD000000A000401C0000242DE9F04399
:1031A00087B014216846FDF7AAF93A48016841F052
:1031B00010010160016801F010010591016841F002
:1031C00080010160016801F080010591016841F012
:1031D00002010160016801F002010591016841F0FE
:1031E00008010160016801F008010591016841F0E2
:1031F0000101016000680022DFF89C8048F21001A4
:1032000000F0010005904046FEF71FF8234F4FF4F1
:10321000C276002231463846FEF717F8DFF8809074
:1032200001224FF440614846FEF70FF801250024C3
:1032300010200221CDE90214CDE90005694640467F
:10324000FDF7EEFE00966946CDE901543846039439
:10325000FDF7E6FEE8030090CDE9015469464046DB
:103260000394FDF7DDFE0321A802CDE90005CDE9B9
:10327000024169464846FDF7D3FEE8026946CDE9BA
:103280000005CDE902544846FDF7CAFE07B0BDE887
:10329000F0830000E0440258001002580004025875
:1032A000000C025830B587B01848002416491F2278
:1032B00040F2E7330094802501940294039404942F
:1032C0000594069480E81600C0E90334C0E905457A
:1032D000FFF7EAFA08B1FDF778F94FF48050009053
:1032E0000A486946FFF77AFB08B1FDF76EF907480F
:1032F00004A9049405940694FFF77AFA002801D0F3
:10330000FDF763F907B030BD00000140BC000024A8
:1033100010B588B016480024202200944FF0804158
:10332000019432230294039404940594069480E853
:103330001600C0E903348461FFF7B6FA08B1FDF75F
:1033400044F94FF48050009009486946FFF746FB66
:1033500008B1FDF73AF9064804A904940694FFF76A
:1033600047FA002801D0FDF730F908B010BD000081
:103370000801002410B588B01648002414491F2203
:1033800000943223019402940394049405940694C7
:1033900080E81600C0E903348461FFF785FA08B1BC
:1033A000FDF713F94FF4805000900A486946FFF783
:1033B00015FB08B1FDF709F9064804A90494069421
:1033C000FFF716FA002801D0FDF7FFF808B010BD8E
:1033D00000040040540100241848002110B5164C88
:1033E0000C224FF496430460C0E90131C160C0E98A
:1033F00004128161C161016241628162FFF78CFD4B
:1034000008B1FDF7E2F80D480021FFF77BFC08B199
:10341000FDF7DBF809480021FFF74EFC08B1FDF786
:10342000D4F80648FFF727FC002803D0BDE8104079
:10343000FDF7CBB810BD0000001C01402C02002499
:103440001848002110B5164C0C224FF49643046026
:10345000C0E90131C160C0E904128161C16101624A
:1034600041628162FFF758FD08B1FDF7AEF80D48E3
:103470000021FFF747FC08B1FDF7A7F80948002134
:10348000FFF71AFC08B1FDF7A0F80648FFF7F3FBB9
:10349000002803D0BDE81040FDF797B810BD00002C
:1034A00000480040A0010024FEE7FEE7704700004E
:1034B0002DE9F047454D044689464FF0000A28683B
:1034C000C04380070AD0414E283E306820F080601B
:1034D0003060FDF7BFFE0746B04608E00120BDE8BA
:1034E000F08700BFFDF7B6FEC01B022867D8D8F8EA
:1034F00000000001F6D4206829684FF4FE0721F48B
:103500007C313E0241EA00302860207AA389B4F879
:1035100004C040022D4D2D495B1E227CACF1010CF4
:103520001035091DA0F5007080B2521ECCF3080CB6
:1035300007EA034340EA0C00184306EA026210431C
:1035400028600868626920F0C000104308600A68BB
:10355000A06922F0200202430A60281D0A6822F0B6
:1035600010020A6002684FF6F873E4699A4342EA6F
:10357000C40202600868B9F1000F40F010020A604E
:1035800011D00868B9F1010F11D040F400100860A3
:10359000D8F80000444640F08060C8F80000FDF70D
:1035A00059FE05460DE0086840F40020EFE740F4BE
:1035B0008010ECE7FDF74EFE401B022801D90320E6
:1035C0008DE720680001F5D5504688E72844025869
:1035D0002DE9F047454D044689464FF0000A28681A
:1035E000C04380070AD0414E283E306820F080500A
:1035F0003060FDF72FFE0746B04608E00120BDE829
:10360000F08700BFFDF726FEC01B022867D8D8F858
:1036100000008000F6D4208829684FF4FE0721F0CE
:103620007C713E0241EA00502860207AA389B4F8F8
:1036300004C040022D4D2D495B1E227CACF1010CD3
:103640001835091DA0F5007080B2521ECCF3080C8D
:1036500007EA034340EA0C00184306EA02621043FB
:1036600028600868626920F44060104308600A68B6
:10367000A06922F4007202430A60281D0A6822F43D
:1036800080720A6002684FF6F873E4699A4342EA6E
:10369000C40202600868B9F1000F40F480720A6049
:1036A00011D00868B9F1010F11D040F080700860A6
:1036B000D8F80000444640F08050C8F80000FDF7FC
:1036C000C9FD05460DE0086840F48000EFE740F4CE
:1036D0000000ECE7FDF7BEFD401B022801D90320E6
:1036E0008DE720688000F5D5504688E728440258C9
:1036F0007047FDF7B5BD000030B5C9B04C212DA80D
:10370000FCF7FDFE202140A8FCF7F9FEB421684635
:10371000FCF7F5FE0220FDF747FE2448002401686F
:1037200021F4404141F480410160016801F44041CD
:10373000489101688904FCD504210C2202202D90B7
:10374000CDE93604CDE93812CDE93A013CA940254E
:10375000012381E815003F942DA8CDE93035FEF70F
:10376000D9FD08B172B6FEE73F2042944FF4806164
:10377000CDE94004CDE94345CDE9455101214795C7
:1037800040A8FEF7B7FB08B172B6FEE748F20200A8
:103790001C941D94C1061A9100906846FDF784FFA1
:1037A000002801D072B6FEE749B030BD1848025873
:1037B0002948F0B5294A016841F470010160106898
:1037C00000F00F00072804D2106820F00F00C01D81
:1037D000106023490020224C10340B68214D43F027
:1037E00001030B6020600B682B400B60136803F033
:1037F0000F03072B04D9136823F00F03DB1D13609D
:10380000174C194A1834194B261D371D2060144CCB
:10381000174D28343060261D3860371D23603B1D4E
:1038200035601C1D3A60251D2E1D1860331D226059
:103830002860326018600A6843F2D2040D4D084BCC
:1038400022F48022044F60330A606E03803F1860C8
:103850002C603E60F0BD000088ED00E000200052CA
:10386000004402587FEDF6EA8002010100020202E4
:103870000000FF01004000520148FFF72CB9000092
:10388000BC0000240148FFF726B90000BC0000245A
:103890000148FFF720B90000080100242DE9F04796
:1038A0002A4B4FF0804A2A4D02689842294E2A4FEF
:1038B0002A4C09D0504507D0A84205D0B04203D0C9
:1038C000B84201D0A04205D1D1F804C022F0700264
:1038D0004CEA0202DFF888C0DFF888809842DFF8FF
:1038E000889015D0504513D0A84211D0B0420FD0C7
:1038F000B8420DD0A0420BD0604509D0404507D05A
:10390000484505D0194DA84202D0194DA84203D10F
:10391000CD6822F440722A434D6922F080022A4386
:10392000026098428A68C2620A68826207D0A04236
:1039300005D0604503D0404501D0484501D1096913
:10394000016301214161BDE8F087000000000140F2
:103950000004004000080040000C0040000401404A
:1039600000400140004401400048014000E00040A8
:1039700000E4004042EA032283680A4323F47F41C3
:103980000A43826070470000034B82681A400A4372
:1039900042F00701816070478FFFCFFF10B5036AC7
:1039A000046A23F00A0324F00104046284690B43CF
:1039B00024F0F00141EA02118161036210BD10B5EB
:1039C000036A23F0100303628369046A23F47043DB
:1039D00024F0A00443EA0232826144EA0111016248
:1039E00010BD00003FB514A1D1E9002314A1CDE919
:1039F0000023D1E90021CDE90221416EB9B101686E
:103A000002AC8A688968C2F34262490F1DF801500E
:103A1000615C2D01B5FBF1F1A0F86A101DF80210F0
:103A2000A25C0901B1FBF2F1A0F868103FBD0121D1
:103A3000A0F86A10F8E70000010101030701000087
:103A4000080402040801010190F82810C90706D0F3
:103A50000168C36A4A6822F400321A434A6090F847
:103A60002810890706D50168036B4A6822F4803262
:103A70001A434A6090F82810490706D50168436B3D
:103A80004A6822F480221A434A6090F828100907F5
:103A900006D50168836B4A6822F400421A434A60E3
:103AA00090F82810C90606D50168C36B8A6822F40D
:103AB00080521A438A6090F82810890606D501685A
:103AC000036C8A6822F400521A438A6090F8281026
:103AD000490611D50168436C4A6822F480121A43E2
:103AE0004A60416CB1F5801F06D10168836C4A6859
:103AF00022F4C0021A434A6090F82810090606D53D
:103B00000168C26C486820F4002010434860704788
:103B1000F8B500260446C0F88860FDF79BFB054613
:103B200020686FF07E470068000708D500222B460A
:103B30004FF400112046009700F026FA60B9206883
:103B4000006840070AD500222B464FF4800120462A
:103B5000009700F019FA08B10320F8BD2020C4F83E
:103B6000800084F87C60C4F884000020F8BD10B5A3
:103B7000806B0021A0F85E10A0F85610FFF7EAF85D
:103B800010BD000030B501682023074D00240A68ED
:103B900022F490720A6001688A682A408A60C0F83C
:103BA0008430C46630BD0000FEFFFFEF2DE9F04316
:103BB00004468068E24F87B02268D4E90465E3696F
:103BC000616E304316681D432843DE4B00250143D8
:103BD0003E400E4316602068E268416821F440517F
:103BE000114341602268A1699A4201D0206A0143D1
:103BF0009768DFF854C3D54ED54807EA0C070F4342
:103C000097602168676ACA6A22F00F023A43CA6263
:103C10002268B2420ED1006800F0380018286FD038
:103C20007ADCB8B308286CD010286BD18BE0282838
:103C300068D18EE0C7498A4209D1006800F00700C8
:103C400006285FD2DFE800F0507D7F818385C2497E
:103C50008A4209D1006800F0070006287BD2DFE81D
:103C600000F0437072747678BC498A4209D10068CA
:103C700000F0070006286ED2DFE800F036636567C3
:103C8000696BB7498A420BD1006800F0070006282B
:103C900061D200E043E0DFE800F0275456585A5C58
:103CA000B0498A4206D1006800F0380018284CD08C
:103CB000B7DD31E0AC498A4209D1006800F0070065
:103CC000062848D2DFE800F0103D3F414345A749B0
:103CD0008A420BD1006800F0070006283BD2DFE8DB
:103CE00000F0033032343638002035E0A0498A42F3
:103CF00009D1006800F03800182826D091DD0BE0CB
:103D000023E01EE027E09B498A420AD1006800F0C8
:103D10003800182819D084DD202888D11CE0012023
:103D20001AE09A4217D18A48001D006800F0070087
:103D3000062810D2DFE800F0030507090B0D02206A
:103D40000AE0042008E0082006E0102004E020201B
:103D500002E0402000E080208749DFF820829A427C
:103D6000874A4FF400434FEA21174FF000064ED127
:103D700010281AD006DC022809D004280BD0082805
:103D80007DD10DE020283ED0402878D13DE0FDF7E0
:103D900035FB014610E06846FDF742FB01990BE058
:103DA00003A8FDF7DFFB049906E01068800604D540
:103DB0001068C0F3C100C140C1B3606A676838F8D9
:103DC000102007EB4703B1FBF2F0834257D8B0EB6A
:103DD000073F54D8002308461946FCF7E7FA0902C2
:103DE000020241EA106170084FEA370010183A46A3
:103DF00071410023FCF7DAFA624AA0F54071914262
:103E00003DD821684CE03946D7E71946D5E7D4F8C4
:103E10001CC04FF6EF799C4552D108281AD006DC19
:103E200060B101280DD0042829D10EE039E0102816
:103E300015D0202840D040287CD13FE0FEF7AAF9D9
:103E400001E0FEF7B9F9014610E06846FDF7E8FA2F
:103E500001990BE003A8FDF785FB049906E01068C3
:103E6000800604D51068C0F3C100C140C9B1636ABF
:103E7000606838F81330B1FBF3F1490000E059E015
:103E800001EB5001B1FBF0F080B2A0F11001494507
:103E900050D84FF6F0732168C0F342021840104327
:103EA000C8600120A4F86A00A4F868002846E66605
:103EB000266707B0BDE8F0833946D8E71946D6E74C
:103EC000082819D005DC58B101280CD0042831D1BC
:103ED0000DE0102815D020282ED040282AD12DE022
:103EE000FEF758F901E0FEF767F9014610E0684671
:103EF000FDF796FA01990BE003A8FDF733FB04994F
:103F000006E01068800605D51068C0F3C100C14006
:103F10000029C6D0636A606838F81330B1FBF3F14A
:103F200001EB5001B1FBF0F080B2A0F11001494566
:103F30007FF667AF0125B4E73946EBE71946E9E7B5
:103F4000F369FFCF000C0058FFF4FF11001001408F
:103F5000544402580044004000480040004C0040D7
:103F6000005000400014014000780040007C0040F8
:103F700000180140001C01400090D003444100089B
:103F800000440258FFFC0F002DE9F0479A461746FF
:103F90000E460446089D4FF000094FF0200839E016
:103FA000681C37D0FDF756F9A0EB0A00A84222D8CA
:103FB0000DB32068016849072CD5C069C0430005CE
:103FC00028D423684FF40061196221680B6823F438
:103FD000D0730B6021688B6823F001038B60C4F8F9
:103FE0008080C4F88480C4F8888000BF032084F8EF
:103FF0007C90BDE8F08721680B6823F4D0730B60D8
:1040000021688B6823F001038B60C4F88080C4F8BA
:104010008480EBE72068C06936EA000004D0002005
:10402000B842BDD00020E4E70120F9E70148FEF7DF
:1040300093BE00002C020024FEE7090700284FEA87
:10404000116104DB00F1E02080F80014704700F0FB
:104050000F0000F1E02080F8141D7047FDF708F90B
:10406000FFF74AFBFFF79AF8FFF752F9FFF7E8F975
:10407000FFF762F8FFF716F9FFF77CF9FFF7ACF9E5
:1040800001221048D102FDF7E0F80F48FEF786FC48
:104090000E48FEF783FC0E4D4FF48074002221463B
:1040A0002846FDF7D2F840F2E7360A490A480822C6
:1040B0003346FEF7DFFF012221462846FDF7C5F80B
:1040C000F3E70000000C025808010024BC000024A3
:1040D0000004025800000024A00100244FF04070AA
:1040E000E1EE100A70470000000102030405060714
:1040F000080C1014182030400000000000000000E0
:1041000000000000000000000000000001000000AE
:104110000200000003000000040000000000000096
:10412000050000000000000000000000000000008A
:104130000600000000000000000000000000000079
:1041400007000000010002000400060008000A0049
:104150000C00100020004000800000010000000062
:104160000102030401020304060708098C41000848
:10417000000000241C00000008030008A8410008FB
:104180001C000024FC0800002403000855A055FF73
:1041900005050555010000001000000000000000AA
:0841A0000090D0030090D00351
:04000005080002CD20
:00000001FF
